{
  "_format": "hh-sol-artifact-1",
  "contractName": "Voting",
  "sourceName": "contracts/Voting.sol",
  "abi": [
    {
      "inputs": [
        {
          "internalType": "address",
          "name": "initialOwner",
          "type": "address"
        }
      ],
      "stateMutability": "nonpayable",
      "type": "constructor"
    },
    {
      "inputs": [
        {
          "internalType": "address",
          "name": "owner",
          "type": "address"
        }
      ],
      "name": "OwnableInvalidOwner",
      "type": "error"
    },
    {
      "inputs": [
        {
          "internalType": "address",
          "name": "account",
          "type": "address"
        }
      ],
      "name": "OwnableUnauthorizedAccount",
      "type": "error"
    },
    {
      "anonymous": false,
      "inputs": [
        {
          "indexed": true,
          "internalType": "address",
          "name": "previousOwner",
          "type": "address"
        },
        {
          "indexed": true,
          "internalType": "address",
          "name": "newOwner",
          "type": "address"
        }
      ],
      "name": "OwnershipTransferred",
      "type": "event"
    },
    {
      "anonymous": false,
      "inputs": [
        {
          "indexed": false,
          "internalType": "address",
          "name": "voter",
          "type": "address"
        },
        {
          "indexed": false,
          "internalType": "uint256",
          "name": "proposalId",
          "type": "uint256"
        }
      ],
      "name": "VoteCast",
      "type": "event"
    },
    {
      "anonymous": false,
      "inputs": [
        {
          "indexed": false,
          "internalType": "address",
          "name": "from",
          "type": "address"
        },
        {
          "indexed": false,
          "internalType": "address",
          "name": "to",
          "type": "address"
        }
      ],
      "name": "VoteDelegated",
      "type": "event"
    },
    {
      "anonymous": false,
      "inputs": [
        {
          "indexed": false,
          "internalType": "address",
          "name": "voter",
          "type": "address"
        }
      ],
      "name": "VoterRegistered",
      "type": "event"
    },
    {
      "inputs": [
        {
          "internalType": "string",
          "name": "name",
          "type": "string"
        }
      ],
      "name": "addProposal",
      "outputs": [],
      "stateMutability": "nonpayable",
      "type": "function"
    },
    {
      "inputs": [
        {
          "internalType": "address",
          "name": "to",
          "type": "address"
        }
      ],
      "name": "delegate",
      "outputs": [],
      "stateMutability": "nonpayable",
      "type": "function"
    },
    {
      "inputs": [],
      "name": "getWinner",
      "outputs": [
        {
          "internalType": "uint256",
          "name": "winningProposalId",
          "type": "uint256"
        },
        {
          "internalType": "string",
          "name": "winnerName",
          "type": "string"
        },
        {
          "internalType": "uint256",
          "name": "winnerVotes",
          "type": "uint256"
        }
      ],
      "stateMutability": "view",
      "type": "function"
    },
    {
      "inputs": [],
      "name": "owner",
      "outputs": [
        {
          "internalType": "address",
          "name": "",
          "type": "address"
        }
      ],
      "stateMutability": "view",
      "type": "function"
    },
    {
      "inputs": [
        {
          "internalType": "uint256",
          "name": "",
          "type": "uint256"
        }
      ],
      "name": "proposals",
      "outputs": [
        {
          "internalType": "string",
          "name": "name",
          "type": "string"
        },
        {
          "internalType": "uint256",
          "name": "voteCount",
          "type": "uint256"
        }
      ],
      "stateMutability": "view",
      "type": "function"
    },
    {
      "inputs": [
        {
          "internalType": "address",
          "name": "voter",
          "type": "address"
        }
      ],
      "name": "registerVoter",
      "outputs": [],
      "stateMutability": "nonpayable",
      "type": "function"
    },
    {
      "inputs": [],
      "name": "renounceOwnership",
      "outputs": [],
      "stateMutability": "nonpayable",
      "type": "function"
    },
    {
      "inputs": [
        {
          "internalType": "address",
          "name": "newOwner",
          "type": "address"
        }
      ],
      "name": "transferOwnership",
      "outputs": [],
      "stateMutability": "nonpayable",
      "type": "function"
    },
    {
      "inputs": [
        {
          "internalType": "uint256",
          "name": "proposalId",
          "type": "uint256"
        }
      ],
      "name": "vote",
      "outputs": [],
      "stateMutability": "nonpayable",
      "type": "function"
    },
    {
      "inputs": [
        {
          "internalType": "address",
          "name": "",
          "type": "address"
        }
      ],
      "name": "voters",
      "outputs": [
        {
          "internalType": "bool",
          "name": "isRegistered",
          "type": "bool"
        },
        {
          "internalType": "bool",
          "name": "hasVoted",
          "type": "bool"
        },
        {
          "internalType": "uint256",
          "name": "votedProposalId",
          "type": "uint256"
        },
        {
          "internalType": "address",
          "name": "delegate",
          "type": "address"
        },
        {
          "internalType": "uint256",
          "name": "weight",
          "type": "uint256"
        }
      ],
      "stateMutability": "view",
      "type": "function"
    },
    {
      "inputs": [],
      "name": "votingDeadline",
      "outputs": [
        {
          "internalType": "uint256",
          "name": "",
          "type": "uint256"
        }
      ],
      "stateMutability": "view",
      "type": "function"
    }
  ],
  "bytecode": "0x608060405234801561001057600080fd5b50604051611ee2380380611ee2833981810160405281019061003291906101f7565b80600073ffffffffffffffffffffffffffffffffffffffff168173ffffffffffffffffffffffffffffffffffffffff16036100a55760006040517f1e4fbdf700000000000000000000000000000000000000000000000000000000815260040161009c9190610233565b60405180910390fd5b6100b4816100d060201b60201c565b5062093a80426100c49190610287565b600381905550506102bb565b60008060009054906101000a900473ffffffffffffffffffffffffffffffffffffffff169050816000806101000a81548173ffffffffffffffffffffffffffffffffffffffff021916908373ffffffffffffffffffffffffffffffffffffffff1602179055508173ffffffffffffffffffffffffffffffffffffffff168173ffffffffffffffffffffffffffffffffffffffff167f8be0079c531659141344cd1fd0a4f28419497f9722a3daafe3b4186f6b6457e060405160405180910390a35050565b600080fd5b600073ffffffffffffffffffffffffffffffffffffffff82169050919050565b60006101c482610199565b9050919050565b6101d4816101b9565b81146101df57600080fd5b50565b6000815190506101f1816101cb565b92915050565b60006020828403121561020d5761020c610194565b5b600061021b848285016101e2565b91505092915050565b61022d816101b9565b82525050565b60006020820190506102486000830184610224565b92915050565b6000819050919050565b7f4e487b7100000000000000000000000000000000000000000000000000000000600052601160045260246000fd5b60006102928261024e565b915061029d8361024e565b92508282019050808211156102b5576102b4610258565b5b92915050565b611c18806102ca6000396000f3fe608060405234801561001057600080fd5b50600436106100a95760003560e01c80635c19a95c116100715780635c19a95c14610151578063715018a61461016d5780638da5cb5b146101775780638e7ea5b214610195578063a3ec138d146101b5578063f2fde38b146101e9576100a9565b80630121b93f146100ae578063013cf08b146100ca578063036ee850146100fb5780632fdae3c51461011957806338db6dd314610135575b600080fd5b6100c860048036038101906100c3919061105e565b610205565b005b6100e460048036038101906100df919061105e565b61050c565b6040516100f292919061112a565b60405180910390f35b6101036105c8565b604051610110919061115a565b60405180910390f35b610133600480360381019061012e91906112aa565b6105ce565b005b61014f600480360381019061014a9190611351565b610642565b005b61016b60048036038101906101669190611351565b6107b7565b005b610175610c26565b005b61017f610c3a565b60405161018c919061138d565b60405180910390f35b61019d610c63565b6040516101ac939291906113a8565b60405180910390f35b6101cf60048036038101906101ca9190611351565b610dcb565b6040516101e0959493929190611401565b60405180910390f35b61020360048036038101906101fe9190611351565b610e3b565b005b60035442111561024a576040517f08c379a0000000000000000000000000000000000000000000000000000000008152600401610241906114a0565b60405180910390fd5b600260003373ffffffffffffffffffffffffffffffffffffffff1673ffffffffffffffffffffffffffffffffffffffff16815260200190815260200160002060000160009054906101000a900460ff166102d9576040517f08c379a00000000000000000000000000000000000000000000000000000000081526004016102d09061150c565b60405180910390fd5b600260003373ffffffffffffffffffffffffffffffffffffffff1673ffffffffffffffffffffffffffffffffffffffff16815260200190815260200160002060000160019054906101000a900460ff1615610369576040517f08c379a000000000000000000000000000000000000000000000000000000000815260040161036090611578565b60405180910390fd5b60018054905081106103b0576040517f08c379a00000000000000000000000000000000000000000000000000000000081526004016103a7906115e4565b60405180910390fd5b600260003373ffffffffffffffffffffffffffffffffffffffff1673ffffffffffffffffffffffffffffffffffffffff168152602001908152602001600020600301546001828154811061040757610406611604565b5b906000526020600020906002020160010160008282546104279190611662565b925050819055506001600260003373ffffffffffffffffffffffffffffffffffffffff1673ffffffffffffffffffffffffffffffffffffffff16815260200190815260200160002060000160016101000a81548160ff02191690831515021790555080600260003373ffffffffffffffffffffffffffffffffffffffff1673ffffffffffffffffffffffffffffffffffffffff168152602001908152602001600020600101819055507fa36cc2bebb74db33e9f88110a07ef56e1b31b24b4c4f51b54b1664266e29f45b3382604051610501929190611696565b60405180910390a150565b6001818154811061051c57600080fd5b906000526020600020906002020160009150905080600001805461053f906116ee565b80601f016020809104026020016040519081016040528092919081815260200182805461056b906116ee565b80156105b85780601f1061058d576101008083540402835291602001916105b8565b820191906000526020600020905b81548152906001019060200180831161059b57829003601f168201915b5050505050908060010154905082565b60035481565b6105d6610ec1565b60006040518060400160405280838152602001600081525090506001819080600181540180825580915050600190039060005260206000209060020201600090919091909150600082015181600001908161063191906118cb565b506020820151816001015550505050565b61064a610ec1565b600260008273ffffffffffffffffffffffffffffffffffffffff1673ffffffffffffffffffffffffffffffffffffffff16815260200190815260200160002060000160009054906101000a900460ff16156106da576040517f08c379a00000000000000000000000000000000000000000000000000000000081526004016106d1906119e9565b60405180910390fd5b6001600260008373ffffffffffffffffffffffffffffffffffffffff1673ffffffffffffffffffffffffffffffffffffffff16815260200190815260200160002060000160006101000a81548160ff0219169083151502179055506001600260008373ffffffffffffffffffffffffffffffffffffffff1673ffffffffffffffffffffffffffffffffffffffff168152602001908152602001600020600301819055507fb6be2187d059cc2a55fe29e0e503b566e1e0f8c8780096e185429350acffd3dd816040516107ac919061138d565b60405180910390a150565b6003544211156107fc576040517f08c379a00000000000000000000000000000000000000000000000000000000081526004016107f3906114a0565b60405180910390fd5b6000600260003373ffffffffffffffffffffffffffffffffffffffff1673ffffffffffffffffffffffffffffffffffffffff16815260200190815260200160002090508060000160009054906101000a900460ff16610890576040517f08c379a000000000000000000000000000000000000000000000000000000000815260040161088790611a55565b60405180910390fd5b8060000160019054906101000a900460ff16156108e2576040517f08c379a00000000000000000000000000000000000000000000000000000000081526004016108d990611ac1565b60405180910390fd5b3373ffffffffffffffffffffffffffffffffffffffff168273ffffffffffffffffffffffffffffffffffffffff1603610950576040517f08c379a000000000000000000000000000000000000000000000000000000000815260040161094790611b2d565b60405180910390fd5b60008290505b600073ffffffffffffffffffffffffffffffffffffffff16600260008373ffffffffffffffffffffffffffffffffffffffff1673ffffffffffffffffffffffffffffffffffffffff16815260200190815260200160002060020160009054906101000a900473ffffffffffffffffffffffffffffffffffffffff1673ffffffffffffffffffffffffffffffffffffffff1614610ac457600260008273ffffffffffffffffffffffffffffffffffffffff1673ffffffffffffffffffffffffffffffffffffffff16815260200190815260200160002060020160009054906101000a900473ffffffffffffffffffffffffffffffffffffffff1690503373ffffffffffffffffffffffffffffffffffffffff168173ffffffffffffffffffffffffffffffffffffffff1603610abf576040517f08c379a0000000000000000000000000000000000000000000000000000000008152600401610ab690611b99565b60405180910390fd5b610956565b60018260000160016101000a81548160ff021916908315150217905550808260020160006101000a81548173ffffffffffffffffffffffffffffffffffffffff021916908373ffffffffffffffffffffffffffffffffffffffff1602179055506000600260008373ffffffffffffffffffffffffffffffffffffffff1673ffffffffffffffffffffffffffffffffffffffff16815260200190815260200160002090508060000160019054906101000a900460ff1615610bc75782600301546001826001015481548110610b9b57610b9a611604565b5b90600052602060002090600202016001016000828254610bbb9190611662565b92505081905550610be7565b8260030154816003016000828254610bdf9190611662565b925050819055505b7fa0ff2fa6909fe4ddd94349fc9d8e2932f3dfe666216f3cc2aa3a72f5a03b655e3383604051610c18929190611bb9565b60405180910390a150505050565b610c2e610ec1565b610c386000610f48565b565b60008060009054906101000a900473ffffffffffffffffffffffffffffffffffffffff16905090565b60006060600080600090506000805b600180549050811015610ce5578260018281548110610c9457610c93611604565b5b9060005260206000209060020201600101541115610cd85760018181548110610cc057610cbf611604565b5b90600052602060002090600202016001015492508091505b8080600101915050610c72565b508060018281548110610cfb57610cfa611604565b5b906000526020600020906002020160000160018381548110610d2057610d1f611604565b5b906000526020600020906002020160010154818054610d3e906116ee565b80601f0160208091040260200160405190810160405280929190818152602001828054610d6a906116ee565b8015610db75780601f10610d8c57610100808354040283529160200191610db7565b820191906000526020600020905b815481529060010190602001808311610d9a57829003601f168201915b505050505091509450945094505050909192565b60026020528060005260406000206000915090508060000160009054906101000a900460ff16908060000160019054906101000a900460ff16908060010154908060020160009054906101000a900473ffffffffffffffffffffffffffffffffffffffff16908060030154905085565b610e43610ec1565b600073ffffffffffffffffffffffffffffffffffffffff168173ffffffffffffffffffffffffffffffffffffffff1603610eb55760006040517f1e4fbdf7000000000000000000000000000000000000000000000000000000008152600401610eac919061138d565b60405180910390fd5b610ebe81610f48565b50565b610ec961100c565b73ffffffffffffffffffffffffffffffffffffffff16610ee7610c3a565b73ffffffffffffffffffffffffffffffffffffffff1614610f4657610f0a61100c565b6040517f118cdaa7000000000000000000000000000000000000000000000000000000008152600401610f3d919061138d565b60405180910390fd5b565b60008060009054906101000a900473ffffffffffffffffffffffffffffffffffffffff169050816000806101000a81548173ffffffffffffffffffffffffffffffffffffffff021916908373ffffffffffffffffffffffffffffffffffffffff1602179055508173ffffffffffffffffffffffffffffffffffffffff168173ffffffffffffffffffffffffffffffffffffffff167f8be0079c531659141344cd1fd0a4f28419497f9722a3daafe3b4186f6b6457e060405160405180910390a35050565b600033905090565b6000604051905090565b600080fd5b600080fd5b6000819050919050565b61103b81611028565b811461104657600080fd5b50565b60008135905061105881611032565b92915050565b6000602082840312156110745761107361101e565b5b600061108284828501611049565b91505092915050565b600081519050919050565b600082825260208201905092915050565b60005b838110156110c55780820151818401526020810190506110aa565b60008484015250505050565b6000601f19601f8301169050919050565b60006110ed8261108b565b6110f78185611096565b93506111078185602086016110a7565b611110816110d1565b840191505092915050565b61112481611028565b82525050565b6000604082019050818103600083015261114481856110e2565b9050611153602083018461111b565b9392505050565b600060208201905061116f600083018461111b565b92915050565b600080fd5b600080fd5b7f4e487b7100000000000000000000000000000000000000000000000000000000600052604160045260246000fd5b6111b7826110d1565b810181811067ffffffffffffffff821117156111d6576111d561117f565b5b80604052505050565b60006111e9611014565b90506111f582826111ae565b919050565b600067ffffffffffffffff8211156112155761121461117f565b5b61121e826110d1565b9050602081019050919050565b82818337600083830152505050565b600061124d611248846111fa565b6111df565b9050828152602081018484840111156112695761126861117a565b5b61127484828561122b565b509392505050565b600082601f83011261129157611290611175565b5b81356112a184826020860161123a565b91505092915050565b6000602082840312156112c0576112bf61101e565b5b600082013567ffffffffffffffff8111156112de576112dd611023565b5b6112ea8482850161127c565b91505092915050565b600073ffffffffffffffffffffffffffffffffffffffff82169050919050565b600061131e826112f3565b9050919050565b61132e81611313565b811461133957600080fd5b50565b60008135905061134b81611325565b92915050565b6000602082840312156113675761136661101e565b5b60006113758482850161133c565b91505092915050565b61138781611313565b82525050565b60006020820190506113a2600083018461137e565b92915050565b60006060820190506113bd600083018661111b565b81810360208301526113cf81856110e2565b90506113de604083018461111b565b949350505050565b60008115159050919050565b6113fb816113e6565b82525050565b600060a08201905061141660008301886113f2565b61142360208301876113f2565b611430604083018661111b565b61143d606083018561137e565b61144a608083018461111b565b9695505050505050565b7f566f74696e6720706572696f642068617320656e646564000000000000000000600082015250565b600061148a601783611096565b915061149582611454565b602082019050919050565b600060208201905081810360008301526114b98161147d565b9050919050565b7f566f746572206973206e6f742072656769737465726564000000000000000000600082015250565b60006114f6601783611096565b9150611501826114c0565b602082019050919050565b60006020820190508181036000830152611525816114e9565b9050919050565b7f566f7465722068617320616c726561647920766f746564000000000000000000600082015250565b6000611562601783611096565b915061156d8261152c565b602082019050919050565b6000602082019050818103600083015261159181611555565b9050919050565b7f50726f706f73616c20696e76616c696400000000000000000000000000000000600082015250565b60006115ce601083611096565b91506115d982611598565b602082019050919050565b600060208201905081810360008301526115fd816115c1565b9050919050565b7f4e487b7100000000000000000000000000000000000000000000000000000000600052603260045260246000fd5b7f4e487b7100000000000000000000000000000000000000000000000000000000600052601160045260246000fd5b600061166d82611028565b915061167883611028565b92508282019050808211156116905761168f611633565b5b92915050565b60006040820190506116ab600083018561137e565b6116b8602083018461111b565b9392505050565b7f4e487b7100000000000000000000000000000000000000000000000000000000600052602260045260246000fd5b6000600282049050600182168061170657607f821691505b602082108103611719576117186116bf565b5b50919050565b60008190508160005260206000209050919050565b60006020601f8301049050919050565b600082821b905092915050565b6000600883026117817fffffffffffffffffffffffffffffffffffffffffffffffffffffffffffffffff82611744565b61178b8683611744565b95508019841693508086168417925050509392505050565b6000819050919050565b60006117c86117c36117be84611028565b6117a3565b611028565b9050919050565b6000819050919050565b6117e2836117ad565b6117f66117ee826117cf565b848454611751565b825550505050565b600090565b61180b6117fe565b6118168184846117d9565b505050565b5b8181101561183a5761182f600082611803565b60018101905061181c565b5050565b601f82111561187f576118508161171f565b61185984611734565b81016020851015611868578190505b61187c61187485611734565b83018261181b565b50505b505050565b600082821c905092915050565b60006118a260001984600802611884565b1980831691505092915050565b60006118bb8383611891565b9150826002028217905092915050565b6118d48261108b565b67ffffffffffffffff8111156118ed576118ec61117f565b5b6118f782546116ee565b61190282828561183e565b600060209050601f8311600181146119355760008415611923578287015190505b61192d85826118af565b865550611995565b601f1984166119438661171f565b60005b8281101561196b57848901518255600182019150602085019450602081019050611946565b868310156119885784890151611984601f891682611891565b8355505b6001600288020188555050505b505050505050565b7f566f74657220697320616c726561647920726567697374657265640000000000600082015250565b60006119d3601b83611096565b91506119de8261199d565b602082019050919050565b60006020820190508181036000830152611a02816119c6565b9050919050565b7f4e6f742072656769737465726564000000000000000000000000000000000000600082015250565b6000611a3f600e83611096565b9150611a4a82611a09565b602082019050919050565b60006020820190508181036000830152611a6e81611a32565b9050919050565b7f416c726561647920766f74656400000000000000000000000000000000000000600082015250565b6000611aab600d83611096565b9150611ab682611a75565b602082019050919050565b60006020820190508181036000830152611ada81611a9e565b9050919050565b7f43616e6e6f742064656c656761746520746f2073656c66000000000000000000600082015250565b6000611b17601783611096565b9150611b2282611ae1565b602082019050919050565b60006020820190508181036000830152611b4681611b0a565b9050919050565b7f44656c65676174696f6e206c6f6f702064657465637465640000000000000000600082015250565b6000611b83601883611096565b9150611b8e82611b4d565b602082019050919050565b60006020820190508181036000830152611bb281611b76565b9050919050565b6000604082019050611bce600083018561137e565b611bdb602083018461137e565b939250505056fea264697066735822122013af6ce868a4cd80c2a79d9d927d0188fc11e22756f818c45d5646fe18fcdb0564736f6c634300081c0033",
  "linkReferences": {},
  "deployedLinkReferences": {}
}